:020000040000FA
:0400000072EF02F0A9
:08000800056ED8CF06F0E0CF31
:1000100007F00001E9CF0DF0EACF08F0E1CF09F0D9
:10002000E2CF0AF0D9CF0BF0DACF0CF0F3CF14F017
:10003000F4CF15F0FACF16F000C00FF001C010F0A9
:1000400002C011F003C012F004C013F09DA22CEF07
:1000500000F09EB24FEF00F00FC000F010C001F0B2
:1000600011C002F012C003F013C004F00E8E0DC0D8
:10007000E9FF08C0EAFF09C0E1FF0AC0E2FF0BC0C8
:10008000D9FF0CC0DAFF14C0F3FF15C0F4FF16C08F
:10009000FAFF055007C0E0FF06C0D8FF100018AAFD
:1000A00003D0192AD8B41A2A9E922CEF00F01B38DC
:1000B000700B006ED89000361F0E6F1400106F6E1C
:1000C0006ECF00F0003A0030070B1B5CF9E1000C2A
:1000D000C00E70140409706E3F0E7014706EF80E2E
:1000E00071140209716EC70E71142809716E719C2A
:1000F000718EF80E72140509726E729C000C1CC091
:1001000023F01BC022F0215252E022C0E9FF23C09D
:10011000EAFF1DC0EFFF2250D8B42306220622C0FA
:10012000E9FF23C0EAFF1EC0EFFF2250D8B4230628
:10013000220622C0E9FF23C0EAFF1F50030BEF6E27
:1001400022C0E9FF23C0EAFF1FC000F000360036DE
:100150000036F80E00160050E00BEF10EF6E22C0D4
:10016000E9FF23C0EAFFEF500809EF6E2250D8B430
:100170002306220622C0E9FF23C0EAFF1FC000F0C9
:10018000003A0032070E00160050070BEF6E22C037
:10019000E9FF23C0EAFF20C000F000360036003639
:1001A000F80E00160050F80BEF10EF6E3FD022C093
:1001B000E9FF23C0EAFFEF6A2250D8B423062206E3
:1001C00022C0E9FF23C0EAFFEF6A2250D8B4230619
:1001D000220622C0E9FF23C0EAFF1DC000F0003A5A
:1001E0000036E00E00160050E00BEF6E2250D8B43F
:1001F0002306220622C0E9FF23C0EAFF1DC000F04B
:100200000032003200321F0E001600501F0BEF6E3E
:1002100022C0E9FF23C0EAFF1EC000F0003A00360A
:10022000E00E00160050E00BEF10EF6E000C040E15
:100230001B6E3DDF4DDF606A9F0E6014606E608450
:1002400060CF50FF739A73980F0E1C6E1B0E1B6EBF
:10025000206A1F6A1E6A1D6A010E216E50DF0F0E92
:100260001C6E030E1B6E206A1F6A1E6A1D6A010E39
:10027000216E45DF0F0E1C6E070E1B6E206A1F6A73
:100280001E6A1D6A010E216E3ADF0F0E1C6E1F0ED4
:100290001B6E206A1F6A1E6A1D6A010E216E2FDF07
:1002A0000F0E1C6E0B0E1B6E206A1F6A1E6A1D6AE3
:1002B000010E216E24DF0F0E1C6E1B6E206A1F6A5A
:1002C0001E6A1D6A010E216E1ADF0F0E1C6E130EC0
:1002D0001B6E206A1F6A1E6A1D6A010E216E0FDFE7
:1002E0000F0E1C6E170E1B6E206A1F6A1E6A1D6A97
:1002F000010E216E04DF9350FB0B0809936E1B6AFD
:10030000D6DE90EF02F03B6A3A6A396A386A36C044
:100310003DF035C03CF03752D8B48BD03DC003F02F
:100320003CC0E9FF3DC0EAFFEFCF00F0016A026A7E
:10033000036A03C03BF002C03AF001C039F000C0CC
:1003400038F03C50D8B43D063C063CC0E9FF3DC007
:10035000EAFFEF50406A3F6A3E6E006A0050381272
:100360003E5039123F503A1240503B123C50D8B4E4
:100370003D063C063CC0E9FF3DC0EAFFEF50030BE1
:10038000426E436A446A456A006A016A0050381244
:100390000150391242503A1243503B123CC0E9FF1F
:1003A0003DC0EAFFEF50E00B426E436A446A456A83
:1003B000006A4234016E4334026E4434036E0136E7
:1003C000023603360136023603360136023603366C
:1003D000013602360336E00E011600503812015085
:1003E000391202503A1203503B123C50D8B43D0629
:1003F0003C063CC0E9FF3DC0EAFFEF503F6A3E6E5D
:10040000006A016A3E34026E3F34036E02360336E0
:10041000023603360236033602360336E00E021683
:10042000005038120150391202503A1203503B1258
:100430004FD0020E3C5E000E3D5A3CC0E9FF3DC06D
:10044000EAFFEF50E00B426E436A446A456A45306A
:100450003B6E44303A6E4330396E4230386E3B3238
:100460003A32393238323B323A32393238323B3230
:100470003A32393238323B323A3239323832070E78
:100480003B163C50D8B43D063C063CC0E9FF3DC09D
:10049000EAFFEF50416A406A3F6A3E6E3E34006EAA
:1004A0003F34016E4034026E4134036E0036013633
:1004B000023603360036013602360336F80E0016D1
:1004C000005038120150391202503A1203503B12B8
:1004D00038C000F039C001F03AC002F03BC003F070
:1004E0001AEF03F0F86AD09E0D8EEA6AE96AC150ED
:1004F000C00B0F09C16E189018921894189618988E
:10050000189A196A1A6AC150C00B0F09C16E9D82F0
:10051000C00EF212780E0509CA6E4F0ECB6E87D64A
:10052000D7DD18B002D0899001D08980929018B29E
:1005300002D0899201D089829292000E18B6010EE3
:100540001B6E000E18B4010E1B10189AE8B0188A22
:1005500018BA02D01A6A196A1950F40819E11A2C4B
:1005600017D01A6A196A18A802D0189801D01888EA
:1005700018A802D018B402D0899601D08986929624
:1005800018A802D018B602D0899401D08984929418
:1005900060BE04D00F0150AF9AD000012A6A200E2D
:1005A000296E60AE17D0F10E6F146F6E1B98A49079
:1005B0001B9074BE1B80749E60A40BD0000E60B0B4
:1005C000010E070B006ED8900036F10E1B140010C0
:1005D0001B6E1CD00F0150AF15D0F10E6F140A091D
:1005E0006F6E1B88A4921B9074BC1B80749C50512E
:1005F000070B070B006ED8900036F10E1B1400108D
:100600001B6E03D0000E016E4AD0000165500F0B27
:10061000286E1B9A65BC1B8A1B9C62B61B8C000E45
:100620001BBC010E2E6E0F0E366E640E356E2EC084
:1006300037F069D603C01FF002C01EF001C01DF0E4
:1006400000C01CF00F0E2D6E660E2C6E2B6A28500B
:100650002B5C14E22CC0E9FF2DC0EAFFEFCF30F095
:100660002AC0EAFF29C0E9FF30C0EFFF292AD8B429
:100670002A2A2C2AD8B42D2A2B2AE9D7F10E6F1456
:100680006F6E1B9EA4BE1B8EA49E1BA804D00F01E0
:10069000509F03D00001609E0F01010E016E0152B8
:1006A00016E01CC000F01D50036E05E1CA0E005C90
:1006B000000102E00F010BD0189220B018821896AA
:1006C00022B01886189423B018840F0100D00001BE
:0406D00028D7030024
:020000040030CA
:0E00000000021E1E008281000FC00FE00F40A4
:00000001FF
;PIC18F2580
