:020000040000FA
:04000000D5EF02F046
:08000800056ED8CF06F0E0CF31
:1000100007F00001E9CF0DF0EACF08F0E1CF09F0D9
:10002000E2CF0AF0D9CF0BF0DACF0CF0F3CF14F017
:10003000F4CF15F0FACF16F000C00FF001C010F0A9
:1000400002C011F003C012F004C013F09DA22CEF07
:1000500000F09EB24FEF00F00FC000F010C001F0B2
:1000600011C002F012C003F013C004F00E8E0DC0D8
:10007000E9FF08C0EAFF09C0E1FF0AC0E2FF0BC0C8
:10008000D9FF0CC0DAFF14C0F3FF15C0F4FF16C08F
:10009000FAFF055007C0E0FF06C0D8FF1000182A7D
:1000A000D8B4192A1A2AD8B41B2A1C2AD8B41D2A53
:1000B0009E922CEF00F02538700B006ED890003621
:1000C0001F0E6F1400106F6E6ECF00F0003A0030FC
:1000D000070B255CF9E1000CC00E70140409706E6A
:1000E0003F0E7014706EF80E71140209716EC70E17
:1000F00071142809716E719C718EF80E72140509C5
:10010000726E729C000C43C04AF042C049F04852E3
:1001100052E049C0E9FF4AC0EAFF44C0EFFF49503E
:10012000D8B44A06490649C0E9FF4AC0EAFF45C0BB
:10013000EFFF4950D8B44A06490649C0E9FF4AC012
:10014000EAFF4650030BEF6E49C0E9FF4AC0EAFFE1
:1001500046C000F0003600360036F80E001600509B
:10016000E00BEF10EF6E49C0E9FF4AC0EAFFEF5025
:100170000809EF6E4950D8B44A06490649C0E9FF5C
:100180004AC0EAFF46C000F0003A0032070E0016EF
:100190000050070BEF6E49C0E9FF4AC0EAFF47C0B5
:1001A00000F0003600360036F80E00160050F80B4E
:1001B000EF10EF6E3FD049C0E9FF4AC0EAFFEF6A97
:1001C0004950D8B44A06490649C0E9FF4AC0EAFF87
:1001D000EF6A4950D8B44A06490649C0E9FF4AC007
:1001E000EAFF44C000F0003A0036E00E001600506E
:1001F000E00BEF6E4950D8B44A06490649C0E9FF02
:100200004AC0EAFF44C000F00032003200321F0E44
:10021000001600501F0BEF6E49C0E9FF4AC0EAFF0D
:1002200045C000F0003A0036E00E00160050E00B2A
:10023000EF10EF6E000C040E256E3DDF4DDF606A9F
:100240009F0E6014606E608460CF50FF739A739845
:100250000F0E436E1B0E426E476A466A456A446A39
:10026000010E486E50DF0F0E436E030E426E476A5A
:10027000466A456A446A010E486E45DF0F0E436EBA
:10028000070E426E476A466A456A446A010E486E26
:100290003ADF0F0E436E1F0E426E476A466A456A8A
:1002A000446A010E486E2FDF0F0E436E0B0E426E36
:1002B000476A466A456A446A010E486E24DF0F0E9B
:1002C000436E426E476A466A456A446A010E486E4A
:1002D0001ADF0F0E436E130E426E476A466A456A76
:1002E000446A010E486E0FDF0F0E436E170E426E0A
:1002F000476A466A456A446A010E486E04DF9350B5
:10030000FB0B0809936E256AD6DE0CEF03F0466AF4
:10031000456A446A436A41C048F040C047F04252CF
:10032000D8B48BD048C003F047C0E9FF48C0EAFF0B
:10033000EFCF00F0016A026A036A03C046F002C010
:1003400045F001C044F000C043F04750D8B448061F
:10035000470647C0E9FF48C0EAFFEF504B6A4A6AC8
:10036000496E006A00504312495044124A504512E7
:100370004B5046124750D8B44806470647C0E9FFDD
:1003800048C0EAFFEF50030B4D6E4E6A4F6A506A49
:10039000006A016A00504312015044124D50451248
:1003A0004E50461247C0E9FF48C0EAFFEF50E00B4D
:1003B0004D6E4E6A4F6A506A006A4D34016E4E347B
:1003C000026E4F34036E01360236033601360236B2
:1003D0000336013602360336013602360336E00EA6
:1003E00001160050431201504412025045120350AE
:1003F00046124750D8B44806470647C0E9FF48C0F0
:10040000EAFFEF504A6A496E006A016A4934026E97
:100410004A34036E0236033602360336023603369A
:1004200002360336E00E0216005043120150441209
:1004300002504512035046124FD0020E475E000E86
:10044000485A47C0E9FF48C0EAFFEF50E00B4D6E45
:100450004E6A4F6A506A5030466E4F30456E4E308D
:10046000446E4D30436E463245324432433246325A
:1004700045324432433246324532443243324632C8
:10048000453244324332070E46164750D8B4480628
:10049000470647C0E9FF48C0EAFFEF504C6A4B6A85
:1004A0004A6A496E4934006E4A34016E4B34026E1A
:1004B0004C34036E00360136023603360036013600
:1004C00002360336F80E0016005043120150441253
:1004D000025045120350461243C000F044C001F0E0
:1004E00045C002F046C003F0C2EF03F00F0E406EAD
:1004F000660E3F6E0F0140B706D0F10E6F1408096B
:100500006F6E416A15D030B707D0F10E6F1406092F
:100510006F6E010E416E0CD020B707D0F10E6F1434
:1005200004096F6E020E416E03D0000E016E3BD0C7
:100530003B50030B006EFC0E60140010606E0F0E3B
:10054000436E640E426E37C047F036C046F035C089
:1005500045F034C044F03CC048F00001D4DD3AC05E
:1005600065FF659C3DB0658C3E6A3A503E5C14E286
:1005700038C0E9FF39C0EAFFEFCF44F040C0EAFFDE
:100580003FC0E9FF44C0EFFF3F2AD8B4402A382AD1
:10059000D8B4392A3E2AE9D76086F10E6F146F6EFF
:1005A000010E016E0F010001000CF86AD09E0D8E45
:1005B000EA6AE96AC150C00B0F09C16E070EB46E3A
:1005C000186A196A1A6A1B6A1C6A1D6AE80E1E6E8E
:1005D000030E1F6EE80E206E030E216E22902292F3
:1005E0002294236A22962298246AC150C00B0F09D4
:1005F000C16E310E926E140E946E710E956E9680D1
:10060000969296949D829D80C00EF212780E0509F6
:10061000CA6E4F0ECB6E0FD65FDD948A000E82BA83
:10062000010E256E9588000E83B8010E006ED890DD
:10063000003600502524266E958C000E83BC010EDA
:10064000040DF3502624276E958A000E83BA010EFE
:10065000080DF3502724286E9586000E83B6010EF0
:10066000100DF3502824246E1950020805E2FF0AE9
:100670000AE11850E70807E3245202E1000E01D016
:10068000010E231405E0228024C023F0196A186AA1
:100690001F501B5C04E306E11E501A5C03E29280CB
:1006A00080A00AD02282928080A004D022861F6A75
:1006B000C80E1E6E1B6A1A6A21501D5C04E306E117
:1006C00020501C5C03E2948482A40AD02284948487
:1006D00082A404D02288216AC80E206E1D6A1C6A7A
:1006E00060BE04D00F0150AFD3D00001356A2A0E8E
:1006F000346E60AE17D0F10E6F146F6E2598A49013
:10070000259074BE2580749E60A40BD0000E60B04E
:10071000010E070B006ED8900036F10E2514001064
:10072000256E1CD00F0150AF15D0F10E6F140A09C1
:100730006F6E2588A492259074BC2580749C5051BE
:10074000070B070B006ED8900036F10E2514001031
:10075000256E03D0000E016E4AD0000165500F0BCC
:10076000326E259A65BC258A259C62B6258C000EC2
:1007700025BC010E396E0F0E416E640E406E39C0FD
:1007800042F0C5D503C029F002C028F001C027F00F
:1007900000C026F00F0E386E660E376E366A325085
:1007A000365C14E237C0E9FF38C0EAFFEFCF3BF018
:1007B00035C0EAFF34C0E9FF3BC0EFFF342AD8B4AC
:1007C000352A372AD8B4382A362AE9D7F10E6F14D9
:1007D0006F6E259EA4BE258EA49E25A804D00F0171
:1007E000509F03D00001609E0F01010E016E015267
:1007F0004FE026C000F02750036E05E1010E005CBB
:1008000000010FE00F01035004E10052000110E06D
:100810000F01035005E1790E005C000110E00F01AB
:1008200037D0030E1F6EE80E1E6E22960F0130D0D9
:10083000030E216EE80E206E22980F0129D02A5255
:1008400002E18C9401D08C8495942B5202E18C901F
:1008500001D08C8095902C5202E18C9201D08C8238
:1008600095920F0140A704D030A702D020B70FD037
:10087000376A366A356A040E346E396A386A3A6AFB
:10088000030E3B6E3C6A3D6A000130DE0F0100D072
:1008900040A704D030A702D020B768D022A03CD017
:1008A000948A339082BA33809588000E83B8010E03
:1008B000346E948A000E82BA010E34103392E8B07E
:1008C0003382958A000E83BA010E346E9586000E2F
:1008D00083B6010E34103394E8B03384958C000E47
:1008E00083BC010E346E9586000E83B6010E341063
:1008F0003396E8B03386376A366A356ADC0E346E72
:10090000396A330E386E040E3A6E010E3B6E3C6A45
:100910003D6A0001EBDD0F0122A213D0339022B615
:100920003380376A366A356A6E0E346E396A330E32
:10093000386E010E3A6E3B6E3C6A3D6A0001D6DDB0
:100940000F0122A413D0339022B83380376A366A5D
:10095000356A640E346E396A330E386E010E3A6EA3
:100960003B6E3C6A3D6A0001C1DD0F01000155D6B6
:02097000030082
:020000040030CA
:0E00000000021E1E008281000FC00FE00F40A4
:00000001FF
;PIC18F4580
