:020000040000FA
:10000000FBEF00F01DC024F01CC023F0225252E090
:1000100023C0E9FF24C0EAFF1EC0EFFF2350D8B47D
:100020002406230623C0E9FF24C0EAFF1FC0EFFF18
:100030002350D8B42406230623C0E9FF24C0EAFFD6
:100040002050030BEF6E23C0E9FF24C0EAFF20C05D
:1000500000F0003600360036F80E00160050E00BB7
:10006000EF10EF6E23C0E9FF24C0EAFFEF5008094C
:10007000EF6E2350D8B42406230623C0E9FF24C022
:10008000EAFF20C000F0003A0032070E00160050D0
:10009000070BEF6E23C0E9FF24C0EAFF21C000F088
:1000A000003600360036F80E00160050F80BEF1040
:1000B000EF6E3FD023C0E9FF24C0EAFFEF6A235070
:1000C000D8B42406230623C0E9FF24C0EAFFEF6A60
:1000D0002350D8B42406230623C0E9FF24C0EAFF36
:1000E0001EC000F0003A0036E00E00160050E00B93
:1000F000EF6E2350D8B42406230623C0E9FF24C0A2
:10010000EAFF1EC000F00032003200321F0E00165F
:1001100000501F0BEF6E23C0E9FF24C0EAFF1FC091
:1001200000F0003A0036E00E00160050E00BEF1031
:10013000EF6ED4EF00F00F0E1A6E660E196E0F01FF
:1001400040B706D0F10E6F1408096F6E1B6A15D008
:1001500030B707D0F10E6F1406096F6E010E1B6EDB
:100160000CD020B707D0F10E6F1404096F6E020E89
:100170001B6E03D0000E016E3BD01550030B006EBA
:10018000FC0E60140010606E0F0E1D6E640E1C6E6F
:1001900011C021F010C020F00FC01FF00EC01EF0E3
:1001A00016C022F000012ED714C065FF659C17B061
:1001B000658C186A1450185C14E212C0E9FF13C071
:1001C000EAFFEFCF1EF01AC0EAFF19C0E9FF1EC018
:1001D000EFFF192AD8B41A2A122AD8B4132A182AD7
:1001E000E9D76086F10E6F146F6E010E016E0F017C
:1001F000000131EF01F0F86AD09EEA6AE96A0A0E5E
:10020000AF6EA60EAC6E900EAB6EC180C182C18483
:10021000C1960D6A0D5007080DE3036A0D50050FD6
:10022000E96E000E0320EA6E9EAAFED7AECFEFFF66
:100230000D2AF0D70F0140A704D030A702D020B775
:1002400010D0116A106A0F6A010E0E6E136A050E45
:10025000126E080E146E010E156E166A176A0001F2
:080260006AD70001D6D70300A4
:020000040030CA
:0E00000000220E0E000081000FC00FE00F4026
:00000001FF
;PIC18F258
