:020000040000FA
:10000000F1EF00F02E6A2D6A2C6A2B6A29C030F0BD
:1000100028C02FF02A52D8B48BD030C003F02FC0A4
:10002000E9FF30C0EAFFEFCF00F0016A026A036A1D
:1000300003C02EF002C02DF001C02CF000C02BF048
:100040002F50D8B430062F062FC0E9FF30C0EAFF8A
:10005000EF50336A326A316E006A00502B12315011
:100060002C1232502D1233502E122F50D8B430068D
:100070002F062FC0E9FF30C0EAFFEF50030B356EAB
:10008000366A376A386A006A016A00502B120150DA
:100090002C1235502D1236502E122FC0E9FF30C0D1
:1000A000EAFFEF50E00B356E366A376A386A006A4D
:1000B0003534016E3634026E3734036E0136023643
:1000C0000336013602360336013602360336013670
:1000D00002360336E00E011600502B1201502C128E
:1000E00002502D1203502E122F50D8B430062F0676
:1000F0002FC0E9FF30C0EAFFEF50326A316E006A6C
:10010000016A3134026E3234036E0236033602362F
:1001100003360236033602360336E00E021600506E
:100120002B1201502C1202502D1203502E124FD0C0
:10013000020E2F5E000E305A2FC0E9FF30C0EAFFDA
:10014000EF50E00B356E366A376A386A38302E6EFB
:1001500037302D6E36302C6E35302B6E2E322D32E0
:100160002C322B322E322D322C322B322E322D329B
:100170002C322B322E322D322C322B32070E2E16F1
:100180002F50D8B430062F062FC0E9FF30C0EAFF49
:10019000EF50346A336A326A316E3134006E323471
:1001A000016E3334026E3434036E0036013602368B
:1001B00003360036013602360336F80E00160050BC
:1001C0002B1201502C1202502D1203502E122BC054
:1001D00000F02CC001F02DC002F02EC003F051EF52
:1001E00001F0F86AD09EEA6AE96A0A0EAF6EA60EBE
:1001F000AC6E900EAB6EC180C182C184C19660BEF0
:1002000004D00F0150AFA9D000011D6A130E1C6E5F
:1002100060AE17D0F10E6F146F6E0E98A4900E9012
:1002200074BE0E80749E60A40BD0000E60B0010EF0
:10023000070B006ED8900036F10E0E1400100E6EF3
:100240001CD00F0150AF15D0F10E6F140A096F6E5C
:100250000E88A4920E9074BC0E80749C5051070BB3
:10026000070B006ED8900036F10E0E1400100E6EC3
:1002700003D0000E016E4AD0000165500F0B1B6EBB
:100280000E9A65BC0E8A0E9C62B60E8C000E0EBCD9
:10029000010E216E0F0E296E640E286E21C02AF009
:1002A000B1D603C012F002C011F001C010F000C0BE
:1002B0000FF00F0E206E660E1F6E1E6A1B501E5C26
:1002C00014E21FC0E9FF20C0EAFFEFCF23F01DC0FA
:1002D000EAFF1CC0E9FF23C0EFFF1C2AD8B41D2A87
:1002E0001F2AD8B4202A1E2AE9D7F10E6F146F6E88
:1002F0000E9EA4BE0E8EA49E0EA804D00F01509F89
:1003000003D00001609E0F01010E016E0F2C25D05D
:10031000105223E1115221E112521FE10D6A0D50DA
:1003200007081BE3070ED8800D54036A050F016E02
:10033000000E032203C01EF0036A0D50130FE96E76
:10034000000E0320EA6EEFCF1FF01EC0EAFF01C0CF
:10035000E9FF1FC0EFFF0D2AE2D70D6A0D50070815
:100360000FE3036A0D50050FE96E000E0320EA6EDD
:10037000EFCF1CF01C509EA8FED7AD6E0D2AEED715
:0603800000013DD703005F
:020000040030CA
:0E00000000220E0E000081000FC00FE00F4026
:00000001FF
;PIC18F258
