:020000040000FA
:04000000E0EF01F03C
:08000800056ED8CF06F0E0CF31
:1000100007F00001E9CF0DF0EACF08F0E1CF09F0D9
:10002000E2CF0AF0D9CF0BF0DACF0CF0F3CF14F017
:10003000F4CF15F0FACF16F000C00FF001C010F0A9
:1000400002C011F003C012F004C013F09DA22CEF07
:1000500000F09EB24FEF00F00FC000F010C001F0B2
:1000600011C002F012C003F013C004F00E8E0DC0D8
:10007000E9FF08C0EAFF09C0E1FF0AC0E2FF0BC0C8
:10008000D9FF0CC0DAFF14C0F3FF15C0F4FF16C08F
:10009000FAFF055007C0E0FF06C0D8FF1000182A7D
:1000A000D8B4192A9E922CEF00F01B38700B006E0A
:1000B000D89000361F0E6F1400106F6E6ECF00F0D8
:1000C000003A0030070B1B5CF9E1000CC00E701405
:1000D0000409706E3F0E7014706EF80E71140209F0
:1000E000716EC70E71142809716E719C718EF80EB5
:1000F00072140509726E729C000C2BC032F02AC07B
:1001000031F0305252E031C0E9FF32C0EAFF2CC07A
:10011000EFFF3150D8B43206310631C0E9FF32C0AA
:10012000EAFF2DC0EFFF3150D8B43206310631C09E
:10013000E9FF32C0EAFF2E50030BEF6E31C0E9FF3A
:1001400032C0EAFF2EC000F0003600360036F80E4E
:1001500000160050E00BEF10EF6E31C0E9FF32C027
:10016000EAFFEF500809EF6E3150D8B4320631067D
:1001700031C0E9FF32C0EAFF2EC000F0003A003281
:10018000070E00160050070BEF6E31C0E9FF32C0BA
:10019000EAFF2FC000F0003600360036F80E0016D9
:1001A0000050F80BEF10EF6E3FD031C0E9FF32C0C6
:1001B000EAFFEF6A3150D8B43206310631C0E9FFA8
:1001C00032C0EAFFEF6A3150D8B43206310631C08E
:1001D000E9FF32C0EAFF2CC000F0003A0036E00E22
:1001E00000160050E00BEF6E3150D8B432063106E5
:1001F00031C0E9FF32C0EAFF2CC000F0003200320B
:1002000000321F0E001600501F0BEF6E31C0E9FFC9
:1002100032C0EAFF2DC000F0003A0036E00E0016B2
:100220000050E00BEF10EF6E000C040E1B6E3DDF74
:100230004DDF606A9F0E6014606E608460CF50FF77
:10024000739A73980F0E2B6E1B0E2A6E2F6A2E6AEE
:100250002D6A2C6A010E306E50DF0F0E2B6E030ECE
:100260002A6E2F6A2E6A2D6A2C6A010E306E45DFC7
:100270000F0E2B6E070E2A6E2F6A2E6A2D6A2C6ABD
:10028000010E306E3ADF0F0E2B6E1F0E2A6E2F6A94
:100290002E6A2D6A2C6A010E306E2FDF0F0E2B6E28
:1002A0000B0E2A6E2F6A2E6A2D6A2C6A010E306E92
:1002B00024DF0F0E2B6E2A6E2F6A2E6A2D6A2C6A8F
:1002C000010E306E1ADF0F0E2B6E130E2A6E2F6A80
:1002D0002E6A2D6A2C6A010E306E0FDF0F0E2B6E08
:1002E000170E2A6E2F6A2E6A2D6A2C6A010E306E46
:1002F00004DF9350FB0B0809936E1B6AD6DEFEEFFA
:1003000001F00F0E286E660E276E0F0140B706D063
:10031000F10E6F1408096F6E296A15D030B707D037
:10032000F10E6F1406096F6E010E296E0CD020B706
:1003300007D0F10E6F1404096F6E020E296E03D000
:10034000000E016E3BD02350030B006EFC0E6014B8
:100350000010606E0F0E2B6E640E2A6E1FC02FF001
:100360001EC02EF01DC02DF01CC02CF024C030F09B
:100370000001C3DE22C065FF659C25B0658C266A3E
:100380002250265C14E220C0E9FF21C0EAFFEFCF33
:100390002CF028C0EAFF27C0E9FF2CC0EFFF272A76
:1003A000D8B4282A202AD8B4212A262AE9D7608658
:1003B000F10E6F146F6E010E016E0F010001000C43
:1003C000F86AD09E0D8EEA6AE96AC150C00B0F0927
:1003D000C16E186A196A1A901A92C150C00B0F099F
:1003E000C16E3F0E926E030E946E9D82C00EF2128D
:1003F000780E0509CA6E4F0ECB6E17D767DE0F0158
:1004000040A704D030A702D020B746D01AA021D0F0
:1004100092881B9680B81B86928A1B9480BA1B8494
:1004200092821B9280B21B8292801B9080B01B80B4
:100430001F6A1E6A1D6A780E1C6E216A1B0E206ED2
:10044000040E226E010E236E246A256A000159DF14
:100450000F011AA221D094801B9682B01B8692862F
:100460001B9480B61B8492841B9280B41B8294825E
:100470001B9082B21B801F6A1E6A1D6AC80E1C6E0A
:10048000216A1B0E206E040E226E010E236E246A5A
:0C049000256A000136DF0F01B3D703001E
:020000040030CA
:0E00000000021E1E008281000FC00FE00F40A4
:00000001FF
;PIC18F2580
