:020000040000FA
:0400000009EF02F012
:08000800056ED8CF06F0E0CF31
:1000100007F00001E9CF0DF0EACF08F0E1CF09F0D9
:10002000E2CF0AF0D9CF0BF0DACF0CF0F3CF14F017
:10003000F4CF15F0FACF16F000C00FF001C010F0A9
:1000400002C011F003C012F004C013F09DA22CEF07
:1000500000F09EB277EF00F00FC000F010C001F08A
:1000600011C002F012C003F013C004F00E8E0DC0D8
:10007000E9FF08C0EAFF09C0E1FF0AC0E2FF0BC0C8
:10008000D9FF0CC0DAFF14C0F3FF15C0F4FF16C08F
:10009000FAFF055007C0E0FF06C0D8FF1000F2CFFE
:1000A0000EF0F29EF76AB80FF66E000EF722090006
:1000B000F5500EBEF28E1200645A50463C32281E95
:1000C000140F0A050200F2CF0EF0F29EF76AE00F5D
:1000D000F66E000EF7220900F5500EBEF28E1200E9
:1000E000645F5A554B4641372D23190F0500182AD6
:1000F000D8B4192A9E922CEF00F01F38700B006EB6
:10010000D89000361F0E6F1400106F6E6ECF00F087
:10011000003A0030070B1F5CF9E1000CC00E7014B0
:100120000409706E3F0E7014706EF80E711402099F
:10013000716EC70E71142809716E719C718EF80E64
:1001400072140509726E729C000C2EC035F02DC021
:1001500034F0335252E034C0E9FF35C0EAFF2FC01B
:10016000EFFF3450D8B43506340634C0E9FF35C04B
:10017000EAFF30C0EFFF3450D8B43506340634C03F
:10018000E9FF35C0EAFF3150030BEF6E34C0E9FFE1
:1001900035C0EAFF31C000F0003600360036F80EF8
:1001A00000160050E00BEF10EF6E34C0E9FF35C0D1
:1001B000EAFFEF500809EF6E3450D8B43506340624
:1001C00034C0E9FF35C0EAFF31C000F0003A003228
:1001D000070E00160050070BEF6E34C0E9FF35C064
:1001E000EAFF32C000F0003600360036F80E001686
:1001F0000050F80BEF10EF6E3FD034C0E9FF35C070
:10020000EAFFEF6A3450D8B43506340634C0E9FF4B
:1002100035C0EAFFEF6A3450D8B43506340634C02E
:10022000E9FF35C0EAFF2FC000F0003A0036E00ECB
:1002300000160050E00BEF6E3450D8B4350634068B
:1002400034C0E9FF35C0EAFF2FC000F000320032B1
:1002500000321F0E001600501F0BEF6E34C0E9FF76
:1002600035C0EAFF30C000F0003A0036E00E00165C
:100270000050E00BEF10EF6E000C040E1F6E3DDF20
:100280004DDF606A9F0E6014606E608460CF50FF27
:10029000739A73980F0E2E6E1B0E2D6E326A316A92
:1002A000306A2F6A010E336E50DF0F0E2E6E030E72
:1002B0002D6E326A316A306A2F6A010E336E45DF65
:1002C0000F0E2E6E070E2D6E326A316A306A2F6A5B
:1002D000010E336E3ADF0F0E2E6E1F0E2D6E326A38
:1002E000316A306A2F6A010E336E2FDF0F0E2E6EC9
:1002F0000B0E2D6E326A316A306A2F6A010E336E30
:1003000024DF0F0E2E6E2D6E326A316A306A2F6A2C
:10031000010E336E1ADF0F0E2E6E130E2D6E326A23
:10032000316A306A2F6A010E336E0FDF0F0E2E6EA8
:10033000170E2D6E326A316A306A2F6A010E336EE3
:1003400004DF9350FB0B0809936E1F6AD6DE27EF7C
:1003500002F00F0E2B6E660E2A6E0F0140B706D00C
:10036000F10E6F1408096F6E2C6A15D030B707D0E4
:10037000F10E6F1406096F6E010E2C6E0CD020B7B3
:1003800007D0F10E6F1404096F6E020E2C6E03D0AD
:10039000000E016E3BD02650030B006EFC0E601465
:1003A0000010606E0F0E2E6E640E2D6E22C032F0A5
:1003B00021C031F020C030F01FC02FF027C033F033
:1003C0000001C3DE25C065FF659C28B0658C296AE5
:1003D0002550295C14E223C0E9FF24C0EAFFEFCFD7
:1003E0002FF02BC0EAFF2AC0E9FF2FC0EFFF2A2A17
:1003F000D8B42B2A232AD8B4242A292AE9D76086FC
:10040000F10E6F146F6E010E016E0F0100016DEFA2
:1004100002F0F86AD09E0D8EEA6AE96AC150C00BFC
:100420000F09C16E186A196AC00E1A6E1B6A640E33
:100430001C6E1D6A1E90C150C00BC16E9D82C00E05
:10044000F212780E0509CA6E4F0ECB6E16D766DE15
:10045000C282C2B2FED7C4501B6A1A6E1D6A036AFA
:100460001D50F2CF1FF0F29E2EDE1FBEF28E110D38
:10047000F350AF0F1B5204E11A5C02E21D2AEFD7C2
:10048000036A1D50F2CF1FF0F29E09DE1FBEF28EEE
:100490001C6E1950060808E2FF0A03E11850CF0845
:1004A00003E21E80196A186A0F0140A704D030A722
:1004B00002D020B713D01EA011D0226A216A206A70
:1004C000D20E1F6E246A1C0E236E080E256E010EBE
:1004D000266E276A286A00013CD70F010001B8D7B1
:0204E000030017
:020000040030CA
:0E00000000021E1E008281000FC00FE00F40A4
:00000001FF
;PIC18F2580
