:020000040000FA
:0400000052EF03F0C8
:08000800056ED8CF06F0E0CF31
:1000100007F00001E9CF0DF0EACF08F0E1CF09F0D9
:10002000E2CF0AF0D9CF0BF0DACF0CF0F3CF14F017
:10003000F4CF15F0FACF16F000C00FF001C010F0A9
:1000400002C011F003C012F004C013F09DA22CEF07
:1000500000F09EB24FEF00F00FC000F010C001F0B2
:1000600011C002F012C003F013C004F00E8E0DC0D8
:10007000E9FF08C0EAFF09C0E1FF0AC0E2FF0BC0C8
:10008000D9FF0CC0DAFF14C0F3FF15C0F4FF16C08F
:10009000FAFF055007C0E0FF06C0D8FF1000010EB0
:1000A0001A26D8B01B2AD8B41C2AD8B41D2A010E8F
:1000B0001E26D8B01F2AD8B4202AD8B4212A26AAAE
:1000C00003D0222AD8B4232A242AD8B4252A9E92DF
:1000D0002CEF00F02838700B006ED89000361F0E01
:1000E0006F1400106F6E6ECF00F0003A0030070BF7
:1000F000285CF9E1000CC00E70140409706E3F0E0C
:100100007014706EF80E71140209716EC70E7114BE
:100110002809716E719C718EF80E72140509726E49
:10012000729C000C45C04CF044C04BF04A5252E067
:100130004BC0E9FF4CC0EAFF46C0EFFF4B50D8B4BC
:100140004C064B064BC0E9FF4CC0EAFF47C0EFFF2F
:100150004B50D8B44C064B064BC0E9FF4CC0EAFFED
:100160004850030BEF6E4BC0E9FF4CC0EAFF48C09C
:1001700000F0003600360036F80E00160050E00B96
:10018000EF10EF6E4BC0E9FF4CC0EAFFEF500809DB
:10019000EF6E4B50D8B44C064B064BC0E9FF4CC039
:1001A000EAFF48C000F0003A0032070E0016005087
:1001B000070BEF6E4BC0E9FF4CC0EAFF49C000F0EF
:1001C000003600360036F80E00160050F80BEF101F
:1001D000EF6E3FD04BC0E9FF4CC0EAFFEF6A4B50D7
:1001E000D8B44C064B064BC0E9FF4CC0EAFFEF6A9F
:1001F0004B50D8B44C064B064BC0E9FF4CC0EAFF4D
:1002000046C000F0003A0036E00E00160050E00B49
:10021000EF6E4B50D8B44C064B064BC0E9FF4CC0B8
:10022000EAFF46C000F00032003200321F0E001616
:1002300000501F0BEF6E4BC0E9FF4CC0EAFF47C0F8
:1002400000F0003A0036E00E00160050E00BEF1010
:10025000EF6E000C040E286E3DDF4DDF606A9F0ECE
:100260006014606E608460CF50FF739A73980F0EB5
:10027000456E1B0E446E496A486A476A466A010E1B
:100280004A6E50DF0F0E456E030E446E496A486A8F
:10029000476A466A010E4A6E45DF0F0E456E070E2D
:1002A000446E496A486A476A466A010E4A6E3ADFF6
:1002B0000F0E456E1F0E446E496A486A476A466AC9
:1002C000010E4A6E2FDF0F0E456E0B0E446E496A0B
:1002D000486A476A466A010E4A6E24DF0F0E456E71
:1002E000446E496A486A476A466A010E4A6E1ADFD6
:1002F0000F0E456E130E446E496A486A476A466A95
:10030000010E4A6E0FDF0F0E456E170E446E496ADE
:10031000486A476A466A010E4A6E04DF9350FB0B37
:100320000809936E286AD6DE87EF03F02A502C0264
:10033000F3CF01F0F4CF00F02D02F35000262B5044
:100340002C02F3500020026E000C016A026A006A5F
:10035000036A2E5002E12D5018E0100E2F6ED89037
:100360002B362C36003603362E50035C02E12D501E
:10037000005C07E32D50005ED8A003062E50035EFC
:10038000D880013602362F2EEAD7000C006A016AA7
:10039000026A036A336A346A356A366A3250311047
:1003A00030102F102CE0200E376ED8902B362C36C4
:1003B0002D362E3633363436353636363250365CB8
:1003C00008E13150355C05E13050345C02E12F50DA
:1003D000335C0FE32F50335E3050D8A0303C345E96
:1003E0003150D8A0313C355E3250D8A0323C365E18
:1003F000D8800036013602360336372ED6D7EA6A61
:10040000330EE96E000C486A476A466A456A43C083
:100410004AF042C049F04452D8B48BD04AC003F0ED
:1004200049C0E9FF4AC0EAFFEFCF00F0016A026A63
:10043000036A03C048F002C047F001C046F000C0A4
:1004400045F04950D8B44A06490649C0E9FF4AC0B8
:10045000EAFFEF504D6A4C6A4B6E006A005045123D
:100460004B5046124C5047124D5048124950D8B488
:100470004A06490649C0E9FF4AC0EAFFEF50030BAC
:100480004F6E506A516A526A006A016A0050451202
:10049000015046124F5047125050481249C0E9FFD0
:1004A0004AC0EAFFEF50E00B4F6E506A516A526A41
:1004B000006A4F34016E5034026E5134036E0136BF
:1004C000023603360136023603360136023603366B
:1004D000013602360336E00E011600504512015077
:1004E000461202504712035048124950D8B44A06E7
:1004F000490649C0E9FF4AC0EAFFEF504C6A4B6E1B
:10050000006A016A4B34026E4C34036E02360336C5
:10051000023603360236033602360336E00E021682
:100520000050451201504612025047120350481223
:100530004FD0020E495E000E4A5A49C0E9FF4AC038
:10054000EAFFEF50E00B4F6E506A516A526A523028
:10055000486E5130476E5030466E4F30456E4832CF
:1005600047324632453248324732463245324832C7
:100570004732463245324832473246324532070E1C
:1005800048164950D8B44A06490649C0E9FF4AC04E
:10059000EAFFEF504E6A4D6A4C6A4B6E4B34006E68
:1005A0004C34016E4D34026E4E34036E003601360B
:1005B000023603360036013602360336F80E0016D0
:1005C0000050451201504612025047120350481283
:1005D00045C000F046C001F047C002F048C003F03B
:1005E000FAEF04F00F0E426E660E416E0F0140B737
:1005F00006D0F10E6F1408096F6E436A15D030B73C
:1006000007D0F10E6F1406096F6E010E436E0CD009
:1006100020B707D0F10E6F1404096F6E020E436EFF
:1006200003D0000E016E3BD03D50030B006EFC0E5C
:1006300060140010606E0F0E456E640E446E39C07B
:1006400049F038C048F037C047F036C046F03EC0E9
:100650004AF0000167DD3CC065FF659C3FB0658CDA
:10066000406A3C50405C14E23AC0E9FF3BC0EAFFFC
:10067000EFCF46F042C0EAFF41C0E9FF46C0EFFFBE
:10068000412AD8B4422A3A2AD8B43B2A402AE9D788
:100690006086F10E6F146F6E010E016E0F01000186
:1006A0005EEF05F0F86AD09E0D8EEA6AE96AC150E5
:1006B000C00B0F09C16E186A196A1A6A1B6A1C6A94
:1006C0001D6A1E6A1F6A206A216A226A236A246AD6
:1006D000256A26902692269426962698269A268C77
:1006E000268E2790C150C00B0F09C16E100E926E5E
:1006F000010E946E9D82C00EF212A00ED56E870E72
:10070000CD6E780E0509CA6E4F0ECB6EA3D5F3DC05
:1007100026B002D0899601D08986929626B002D062
:10072000899201D08982929226B202D08B9801D010
:100730008B88949826B202D08A9201D08A829392B2
:10074000000E26B6010E286E000E26B4010E2810EB
:10075000269AE8B0268A26BA02D0236A226A225054
:10076000F40819E1232C17D0236A226A26A802D0A4
:10077000269801D0268826A802D026B402D08B92D3
:1007800001D08B82949226A802D026B602D0899AF4
:1007900001D0898A929A26AC2DD01A50E80829E116
:1007A0001B50030826E11C5224E11D5222E11D6A60
:1007B0001C6A1B6A1A6AD650D7CF03F0286ED7CFAF
:1007C00029F0D7CF2BF02A6E010E2D6E420E2C6E23
:1007D000ADDD02C02AF001C029F002C02CF001C03A
:1007E0002BF02E6A640E2D6EB0DD01C018F0D76AB2
:1007F000D66A35D0D650D7CF03F0286ED7CF29F0A0
:10080000295203E1285000082AE2D650D7CF03F03E
:10081000286ED7CF29F00C0E2B6E940E2A6ED7CFF0
:100820002DF028C02CF082DD02C02AF001C029F092
:100830002E6A2D6A02C02CF001C02BF01DC032F0D0
:100840001CC031F01BC030F01AC02FF09FDD00C07B
:1008500018F01D6A1C6A1B6A1A6AD76AD66A26AE25
:100860002DD01E50E80829E11F50030826E1205230
:1008700024E1215222E1216A206A1F6A1E6ACE50B9
:10088000CFCF03F0286ECFCF29F0CFCF2BF02A6E39
:10089000010E2D6E420E2C6E49DD02C02AF001C001
:1008A00029F002C02CF001C02BF02E6A640E2D6ED0
:1008B0004CDD01C019F0CF6ACE6A35D0CE50CFCF13
:1008C00003F0286ECFCF29F0295203E12850000809
:1008D0002AE2CE50CFCF03F0286ECFCF29F00C0EF6
:1008E0002B6E940E2A6ECFCF2DF028C02CF01EDD7B
:1008F00002C02AF001C029F02E6A2D6A02C02CF035
:1009000001C02BF021C032F020C031F01FC030F008
:100910001EC02FF03BDD00C019F0216A206A1F6A5B
:100920001E6ACF6ACE6A2550000808E2FF0A03E17A
:100930002450F30803E22780256A246A269C185075
:100940000A0801E2268C269E19500A0801E2268E2A
:1009500060BE04D00F0150AF99D00001376A2D0E50
:10096000366E60AE17D0F10E6F146F6E2898A4909B
:10097000289074BE2880749E60A40BD0000E60B0D6
:10098000010E070B006ED8900036F10E28140010EF
:10099000286E1CD00F0150AF15D0F10E6F140A094C
:1009A0006F6E2888A492289074BC2880749C505143
:1009B000070B070B006ED8900036F10E28140010BC
:1009C000286E03D0000E016E4AD0000165500F0B57
:1009D000356E289A65BC288A289C62B6288C000E41
:1009E00028BC010E3B6E0F0E436E640E426E3BC080
:1009F00044F009D503C02CF002C02BF001C02AF04E
:100A000000C029F00F0E3A6E660E396E386A355006
:100A1000385C14E239C0E9FF3AC0EAFFEFCF3DF09D
:100A200037C0EAFF36C0E9FF3DC0EFFF362AD8B431
:100A3000372A392AD8B43A2A382AE9D7F10E6F145E
:100A40006F6E289EA4BE288EA49E28A804D00F01F5
:100A5000509F03D00001609E0F01010E016E0152F4
:100A600015E02950DC0812E12A5210E12B520EE168
:100A70002C520CE126902DB0268026922EB0268294
:100A800026962FB02686269430B0268440A704D020
:100A900030A702D020B713D027A011D0396A386A06
:100AA000376AD70E366E3B6A180E3A6E080E3C6EE9
:100AB000010E3D6E3E6E3F6A000194D50F010001AC
:040AC00027D6030032
:020000040030CA
:0E00000000021E1E008281000FC00FE00F40A4
:00000001FF
;PIC18F2580
